:020000040800F2
:10000000E8080020890100088F2500083F1C00082F
:100010008D250008AF0200088929000800000000B3
:10002000000000000000000000000000952500080E
:10003000F302000800000000912500089725000841
:10004000A3010008A3010008A3010008A301000800
:10005000A301000893250008A3010008A3010008DC
:10006000A3010008A3010008A3010008A3010008E0
:10007000A3010008A3010008B1020008BD020008A6
:10008000A3010008A3010008A3010008A3010008C0
:10009000A3010008A3010008A3010008A3010008B0
:1000A000A3010008A3010008A3010008A3010008A0
:1000B000F925000805260008A3010008A30100088F
:1000C000A3010008A3010008A3010008A301000880
:1000D000A30100087D290008A3010008A30100086E
:1000E000A3010008A3010008A301000800F002F822
:1000F00000F03AF80AA090E8000C82448344AAF188
:100100000107DA4501D100F02FF8AFF2090EBAE885
:100110000F0013F0010F18BFFB1A43F0010318473B
:100120003C3300005C330000103A24BF78C878C12B
:10013000FAD8520724BF30C830C144BF04680C60ED
:10014000704700000023002400250026103A28BF35
:1001500078C1FBD8520728BF30C148BF0B60704739
:100160001FB51FBD10B510BD00F06CF81146FFF7AC
:10017000F7FF02F087FD00F08AF803B4FFF7F2FF03
:1001800003BC00F08DF8000009488047094800478B
:10019000FEE7FEE7FEE7FEE7FEE7FEE7FEE7FEE737
:1001A000FEE7FEE704480549054A064B7047000094
:1001B000F7250008ED000008E8020020E80800200C
:1001C000E8040020E80400204FF0000200B51346C8
:1001D00094469646203922BFA0E80C50A0E80C5067
:1001E000B1F12001BFF4F7AF090728BFA0E80C5018
:1001F00048BF0CC05DF804EB890028BF40F8042B11
:1002000008BF704748BF20F8022B11F0804F18BF7D
:1002100000F8012B704770477047704710B500F029
:1002200009F8006810BD10B5044600F003F804603A
:1002300010BD000000487047880200200048704749
:10024000880200207546FFF7F9FFAE4605006946B3
:10025000534620F00700854618B020B5FFF7A2FFEF
:10026000BDE820404FF000064FF000074FF00008B7
:100270004FF0000B21F00701AC46ACE8C009ACE838
:10028000C009ACE8C009ACE8C0098D46704710B59C
:100290000446AFF300802046BDE81040FFF76DBF75
:1002A00001491820ABBEFEE7260002007047FEE7BA
:1002B000014800F091B8000044020020014800F01D
:1002C0008BB800000002002030B590F840500124A7
:1002D000AC40C56B6C60046863604368102B0368B6
:1002E00003D099600068C26030BD9A600068C16048
:1002F00030BD704772B6FEE710B590F821100022AD
:10030000022905D00421816380F82020012010BD3E
:1003100001680B6823F00E030B6001680B6823F083
:1003200001030B6090F84030012404FA03F1C36B21
:10033000596080F8214080F82020104610BD000050
:1003400010B590F821100024022903D00421816304
:1003500001243DE001680A6822F00E020A6001688B
:100360000A6822F001020A601A4A0168914201D12A
:10037000012121E0174A1432914201D110211BE0E2
:10038000144A2832914201D1891515E0114A3C32B4
:10039000914201D189140FE00E4A5032914202D1AC
:1003A0004FF4803108E00B4A6432914202D14FF49D
:1003B000801101E04FF08071064A083A5160012136
:1003C00080F82110002180F82010416B01B188478E
:1003D000204610BD080002402DE9F05FC16B0B689C
:1003E00001680A68046C4FF0040C0CFA04FC4A4DD6
:1003F000DFF828A14A4E4B4FDFF82CB1DFF82CE193
:100400001CEA030F2DD05FEA427C2AD50A689206C7
:1004100003D40A6822F004020A600168A94201D1EB
:10042000042119E0514501D1402115E0B14202D12A
:100430004FF4806110E0B94202D14FF480410BE0EB
:10044000594502D14FF4802106E0714502D14FF4A5
:10045000800101E04FF080612F4A083A5160C16A83
:100460003BE04FF0020808FA04F818EA030F4FF0D7
:1004700000094FF0010C35D05FEA827832D50A6866
:10048000920605D40A6822F00A020A6080F821C0A8
:100490000168A94201D1022119E0514501D1202171
:1004A00015E0B14202D14FF4007110E0B94202D11F
:1004B0004FF400510BE0594502D14FF4003106E0F2
:1004C000714502D14FF4001101E04FF00071124A62
:1004D000083A516080F82090816A00291AD0BDE85E
:1004E000F05F08470825A5401D4213D0120711D51B
:1004F0000A6822F00E020A6090F84010C26B0CFAF3
:1005000001F15160C0F838C080F821C080F8209017
:10051000016BE2E7BDE8F09F080002401C000240CA
:100520003000024044000240580002406C0002408B
:1005300030B528B302C8134A14230A44B2FBF3F2BD
:100540009200C263104A8263022242770B6843F62C
:10055000F0729343D0E900242243D0E902452C43B2
:1005600022430469224344692243846922431A4393
:100570000A6000214163012242770177084630BDBD
:10058000012030BDF8FFFDBF0000024070B50446F9
:1005900090F82000002501280CD0012084F82000CC
:1005A00094F821600020012E06D084F82000022556
:1005B000284670BD022070BD022684F82160A06329
:1005C0002068066826F0010606602046FFF77CFEDC
:1005D000E06A00282068016802D041F00E0106E0C0
:1005E00021F0040101602068016841F00A01016006
:1005F0002068016841F001010160D9E770B5044647
:1006000000F0F4F80546601C02D004480078044469
:1006100000F0ECF8401BA042FAD370BD04000020AB
:100620002DE9F84FDFF8A4910024A9F1040B23462B
:100630004FF00F0809F1040AABF1040EBEE00127E8
:10064000A7403A40BA4272D1DFF884C14D68A5EBA9
:100650000C0665452BD00DDC032D34D005DC35B3FD
:10066000012D19D0022D2FD11BE0112D16D0122DE6
:100670002AD119E0B6F5881F19D006DCB6F5803FFF
:1006800015D0B6F5801F1FD111E0B6F5001F0ED0B2
:10069000B6F5041F18D10AE0CB6815E0CB681B1D26
:1006A00012E0CB6808330FE0CB680C330CE08B68AA
:1006B0002BB1012B4FF0080303D0476104E0042362
:1006C00002E0076100E00023FF2A01D8064601E0AE
:1006D00000F104064FEA840501D9A5F12005376829
:1006E00008FA05FC27EA0C0703FA05F547EA0507AF
:1006F00037604D68ED0060D5364DAE6946F00106B5
:10070000AE61AD6924F0030605F001050095324D98
:100710007719BE68A5072D0F08FA05FC26EA0C0616
:10072000DFF8B8C0604503D14FF0000C17E044E09B
:10073000DFF8ACC0604502D14FF0010C0FE0DFF8EC
:10074000A4C0604502D14FF0020C08E0DFF898C069
:10075000604502D14FF0030C01E04FF0040C0CFA9D
:1007600005FC4CEA060CC7F808C04D68D9F80060D3
:10077000ED024D4601D5164300E096432E604D68CC
:10078000DAF80060AD02554601D5164300E0964305
:100790002E604D68DBF80060AD035D4601D5164361
:1007A00000E096432E604D68DEF80060ED0375466C
:1007B00001D5164300E096432E60641C0A6832FAA5
:1007C00004F57FF43CAFBDE8F88F00000804014059
:1007D000000011100010024000000140000801401C
:1007E000000C0140001001400014014001488068E5
:1007F000704700000400002070B5040025D094F874
:100800003D00002520B984F83C50204600F07EFAD7
:10081000242084F83D002068016821F00101016076
:100820002068016841F4004101602068016821F4FA
:100830000041016000F0D4FB4D4B6168994201D842
:100840004C4900E04C49884201D2012070BD4B491F
:100850002268B0FBF1F1566826F03F060E43566061
:1008600062689A4206D94FF4967251434FF47A72F5
:10087000B1FBF2F12268491C166A26F03F063143AB
:1008800011626168994210D84900401EB0FBF1F234
:10089000521CC2F30B02042A01D2042022E0B0FB56
:1008A000F1F0401CC0F30B001CE0A268F2B301EBB6
:1008B000C10303EB0116431EB3FBF6F35B1C43F4C9
:1008C00080431B0549D092B301EBC10202EB011139
:1008D000401EB0FBF1F0401CC0F30B0040F4804020
:1008E00040F400402168CA694CF6FF739A431043F4
:1008F000C861D4E9071001432068026822F0C002F1
:1009000011430160D4E9030101432068826848F281
:10091000FF339A4311438160D4E9051001432068F5
:10092000C26822F0FF021143C16001E00EE016E050
:100930002068016841F0010101602564202084F8ED
:100940003D00256384F83E50002070BD01EB410658
:10095000431EB3FBF6F35B1CB3E70120C2E701EBD8
:100960004101401EB0FBF1F0401CC0F30B00B7E7A3
:10097000A086010080841E0000093D0040420F0057
:100980002DE9FF4F83B00026DDE910799A469346A2
:100990000446DDF848800096FFF728FF054694F8E6
:1009A0003D0020287CD1192301228849204600954A
:1009B00001F05BFA0028F5D194F83C0001286FD0D3
:1009C000012084F83C0020680168C90703D1016850
:1009D00041F0010101602068016821F400610160BB
:1009E000222084F83D00402084F83E00266467629F
:1009F000A4F82A90608D20857548E062CDE90085D5
:100A000053465A462046049901F032F900287CD119
:100A1000208DDFF8C091202768B1012814D002286A
:100A2000206801681ED041F480610160206841693E
:100A300080690090BCE0206841698169009101688B
:100A400041F400710160B3E02068016821F4806125
:100A5000016072B62068416981690091016841F4C2
:100A600000710AE041F40061016072B620684169DA
:100A700081690091016821F48061016062B697E0AC
:100A8000032865D801280CD0022843464FF0000205
:100A90004946204600950BD001F0E7F9A8BB0CE0D1
:100AA00091E02A464146204601F080FA68BB72E098
:100AB00001F0DBF948BB72B633E02068016821F42D
:100AC0008061016072B620680069616A0870606ABE
:100AD000401C6062208D401E2085608D401E608518
:100AE0003D4846F2A8110068B0FBF1F0C0EBC00031
:100AF00000EB80000090401E009007D02068406905
:100B0000C04340070DD50098F5E727E044F8306F63
:100B10006773A673206940F02000206162B62673D7
:100B20001CE02068016841F40071016020680069E0
:100B3000616A0870606A401C6062218D491E2185CF
:100B4000618D491E618562B621680969017026E0E0
:100B50002A464146204601F029FA18B1012007B083
:100B6000BDE8F08F20680069616A0870606A401C07
:100B70006062208D401E81B22185608D401E60859F
:100B800020684269D243520712D4032903D1016875
:100B900021F48061016020680069616A0870606A00
:100BA000401C6062208D401E2085608D401E608547
:100BB000208D00287FF464AF84F83D7084F83E6097
:100BC00084F83C60CBE70220C9E700000200100077
:100BD0000000FFFF04000100000000202DE9FF4F8E
:100BE00083B09A46DDE9119793460446DDF84080CC
:100BF000FFF7FCFD054694F83D0020287FD119231E
:100C0000012240492046009501F02FF9002876D1B5
:100C100094F83C00012872D0012084F83C00206840
:100C20000168C90703D1016841F001010160206832
:100C3000016821F400610160212084F83D0040201A
:100C400084F83E0000262664C4F82480A4F82A9084
:100C5000608D20852C48E062CDE9007553465A46E8
:100C60002046049901F082F870B930E02A463946EE
:100C7000204601F0D5F958B1206C042804D1206831
:100C8000016841F400710160012007B0BDE8F08FF8
:100C9000606A216800780861626A521C6262208D75
:100CA000401E80B22085618D491E618521684B6997
:100CB000DB435B070BD468B110780861606A401CA5
:100CC0006062208D401E2085608D401E6085208DD5
:100CD0000028CBD12A463946204601F09BF800284F
:100CE000CAD154F83D0B016841F400710160202025
:100CF00004F81E09E67766770020C6E7FFE70220C2
:100D0000C3E70000020010000000FFFF10B586B02E
:100D10000021009101910291039100680F498842DE
:100D20001AD10F4CA06940F00800A061A069694683
:100D300000F008000490C0200090122001900320D1
:100D400003900848FFF76CFCE06940F40010E06194
:100D5000E06900F40010049006B010BD005400409B
:100D600000100240000C01400248816802781144E2
:100D70008160704704000020074810B5016841F009
:100D800010010160032000F07DF80F2000F006F84C
:100D900000F024F8002010BD0020024070B50D4D79
:100DA00004464FF47A712878B1FBF0F00A490968DB
:100DB000B1FBF0F000F0E6FA48B9102C07D200229F
:100DC0002146501E00F03EF800206C6070BD0120EE
:100DD00070BD00000400002000000020104808B58D
:100DE000816941F001018161816901F00101009196
:100DF000C16941F08051C161C069002200F080509A
:100E000000901146052000F01DF8052000F00CF8B8
:100E10000449486820F0E06040F00070486008BD78
:100E20000010024000000140002809DB00F01F0212
:100E3000012191404009800000F1E020C0F800113C
:100E400070470000F0B40E4B1B68C3F30223C3F1DC
:100E50000704042C00D904241D1D072D01D20023F2
:100E600000E0DB1E012606FA04F56D1E0D409D40D4
:100E70009E40761E164045EA0601F0BC01F098BD82
:100E80000CED00E0064A00F0070110684FF6FF0382
:100E9000184040EA012003490843106070470000F1
:100EA0000CED00E00000FA052DE9F0470D460400C6
:100EB00067D0DFF81881D8F8000000F00700A842DA
:100EC0000CD2D8F8001021F007012943C8F800100F
:100ED000D8F8000000F00700A84252D120683C4E2C
:100EE000810712D5400703D5706840F4E060706058
:100EF0002078000703D5706840F460507060706817
:100F0000A16820F0F000084370602078C00727D067
:100F10006068012810D03168022810D089070029A4
:100F20002FDA716821F0030101437160FFF75EFC65
:100F3000074641F288390CE031688903EFE78901FF
:100F4000EDE7FFF753FCC11B494502D90320BDE87B
:100F5000F0877068616800F00C00B0EB810FF0D191
:100F6000D8F80010404601F00701A9420BD90168EA
:100F700021F0070129430160006800F00700A84242
:100F800001D00120E3E72078400705D57068E168CB
:100F900020F4E060084370602078000706D5706890
:100FA000216920F4605040EAC100706000F038F818
:100FB0007168084AC1F30311515CC84006490860D2
:100FC00006480068FFF7EAFE0020C0E70020024064
:100FD0000010024032340008000000200800002009
:100FE0000448054900684968044AC1F30221515C7C
:100FF000C840704700000020001002404234000842
:101000000448054900684968044AC1F3C221515C9B
:10101000C840704700000020001002404234000821
:101020000E4B59680E4801F00C02042A11D0082A10
:101030000FD10C48C1F38342C903805C0AD55968BB
:10104000084AC1F34041921E515C054A5043B0FB2F
:10105000F1F0704704494843704700000010024017
:1010600000127A004C34000800093D002DE9F84FC9
:1010700004006FD02078BE4DC00747D06868C0F329
:101080008100012807D06868C0F38100022809D1D7
:101090006868C00306D52868800337D560680028D3
:1010A000E7D033E06068B0F5803F0BD010B1B0F509
:1010B000A02F11D0286820F480302860286820F400
:1010C000802002E0286840F480302860606888B1A1
:1010D000FFF78CFB064609E0286840F48020286072
:1010E000F0E7FFF783FB801B642873D82868800330
:1010F000F7D50BE0FFF77AFB064604E0FFF776FB37
:10110000801B6428F1D828688003F7D42078DFF8A2
:10111000648280074FF0010A4FF0000939D56868F2
:1011200010F00C0F07D06868C0F38100022809D1C5
:101130006868C00306D42868800714D52069012890
:1011400008D110E02069B0B1C8F800A0FFF74EFB4D
:10115000064605E007E1FFF749FB801B0228C4D8DB
:1011600028688007F7D52868616920F0F80040EA10
:10117000C10028600DE0C8F80090FFF737FB064675
:1011800004E0FFF733FB801B022823D82868800780
:10119000F7D4207800072CD57748A169D9B1C0F8D9
:1011A00000A0FFF723FB064604E0FFF71FFB801BB0
:1011B00002280FD8686A8007F7D570484FF4FA51B3
:1011C0000068B0FBF1F0009000BF0098411E009154
:1011D000FAD20EE07CE0C0F80090FFF707FB06466D
:1011E00004E0FFF703FB801B022871D8686A8007C0
:1011F000F7D4207840075BD5E8690027C00008D401
:10120000E86940F08050E861E869012700F080500B
:1012100000905B480168C90511D40168834641F418
:1012200080710160FFF7E2FA064604E0FFF7DEFA9C
:10123000801B64284CD8DBF80000C005F6D5E068B8
:1012400001280AD008B1052813D0286A20F001002F
:101250002862286A20F0040002E0286A40F00100B9
:101260002862E06841F2883B88B1FFF7BFFA064682
:1012700009E0286A40F004002862EEE7FFF7B6FABA
:10128000811B59455BD8286A8007F7D50BE0FFF72B
:10129000ADFA064604E0FFF7A9FA811B59454ED87E
:1012A000286A8007F7D41FB1E86920F08050E86110
:1012B000E069A8B36968C1F38101022946D0022818
:1012C000484606D0C8F86000FFF790FA044639E0B7
:1012D00035E04746C8F86000FFF788FA064604E0A4
:1012E000FFF784FA801B022829D828688001F7D4E8
:1012F000206AB0F5803F05D16868A16820F400300D
:1013000008436860D4E908010843696821F474114E
:1013100008436860C7F860A0FFF768FA044605E074
:1013200023E0FFF763FA001B022808D82868800131
:10133000F7D51AE0FFF75AFA001B022802D903205A
:10134000BDE8F88F28688001F4D40EE00128F7D0BA
:101350006868226A00F48031914204D1616A00F425
:101360007010884201D00120EAE70020E8E7000081
:10137000001002400000424280044242000000206F
:101380000070004010B5401EB0F1807F01D30120F5
:1013900010BD4FF0E02460610F21601701F008FBE1
:1013A0000020A06107202061002010BD7047704719
:1013B00070B590F83C20012A26D0012580F83C50D9
:1013C000022280F83D2002685368946823F070067A
:1013D0000B68334353600D4B02689A4208D0B2F158
:1013E000804F05D00A4B9A4202D00A4B9A4204D150
:1013F000496824F080031943916080F83D50002132
:1014000080F83C10084670BD022070BD002C0140E1
:10141000000400400008004010B5040003D094F818
:101420003D0010B107E0012010BD002084F83C0011
:10143000204600F01FF8022084F83D00211D20689E
:1014400001F0E6F8012084F8460084F83E0084F8B4
:101450003F0084F8400084F8410084F8420084F89A
:10146000430084F8440084F8450084F83D000020DF
:1014700010BD000008B500681449B0F1804F14D0C9
:10148000134A904220D1C86940F00200C861C8697F
:10149000002200F00200009011461D20FFF7D2FC50
:1014A0001D20BDE80840FFF7BFBCC86940F001003F
:1014B000C861C869002200F00100009011461C209C
:1014C000FFF7C0FC1C20ECE708BD00000010024044
:1014D0000004004090F83D10012901D00120704720
:1014E000022180F83D100168CA6842F00102CA601A
:1014F00000680B49884208D0B0F1804F05D00949F7
:10150000884202D00849884204D1816801F007016D
:10151000062903D0016841F00101016000207047F5
:10152000002C0140000400400008004070B5044653
:1015300090F83C000025012817D0012684F83C6073
:10154000022084F83D002068826822F0770222F4AD
:101550007F4282600868502838D00DDC20284FD0A8
:1015600005DC90B3102811D14AE0022070BD30286C
:1015700046D040280AD13BE060282FD070280DD0FB
:10158000B0F5805F03D0B0F5005F12D0012584F87C
:101590003D60002084F83C00284670BDCB68D1E94E
:1015A0000121206801F070F82068816841F077011E
:1015B00009E0CB68D1E90121206801F065F82068D5
:1015C000816841F480418160E1E719E0CA684968B7
:1015D000206801F06BF85021206806E0CA6849686D
:1015E000206801F074F86021206801F057F8CEE718
:1015F000CA684968206801F059F840212068F4E77A
:10160000226801461046F0E770472DE9F041044694
:101610000068C66805694FF00007A90713D5B10730
:1016200011D5F91E016101202077206880698007AB
:10163000204602D0FFF7E8FF04E000F07EF82046E5
:1016400000F07CF82777680716D5700714D5216855
:101650006FF004000861022020772068806910F490
:10166000407F204602D0FFF7CFFF04E000F065F88E
:10167000204600F063F82777280715D5300713D5E3
:1016800021686FF008000861042020772068C06995
:101690008007204602D0FFF7B7FF04E000F04DF8C6
:1016A000204600F04BF82777E80616D5F00614D54B
:1016B00021686FF010000861082020772068C06959
:1016C00010F4407F204602D0FFF79EFF04E000F0B8
:1016D00034F8204600F032F82777E80708D0F00702
:1016E00006D021686FF001000861204600F028F85C
:1016F000280608D5300606D521686FF080000861FD
:101700002046FFF753FE680608D5700606D5216807
:101710006FF040000861204600F06AF8A8060AD57C
:10172000B00608D521686FF0200008612046BDE8AA
:10173000F041FFF73CBEBDE8F08170477047000004
:101740002DE9F04700681F4D1F4EB0F1804F14D0B7
:101750001E49884233D11E48017800292FD000212C
:1017600001701C4829680C22016031684160BDE8A5
:10177000F0470146184800F017BA1849184800F019
:10178000ADFD164C103494E80700103C00F092FCBC
:101790001034814694E80700103C00F06DFC114FB6
:1017A00080463B4649461048E26900F0A0FC2860AC
:1017B0003B4641460D48226A00F099FC3060BDE886
:1017C000F0870000100000201400002000040040FA
:1017D000180000201C000020B80100202800002074
:1017E000D40000206F12833A54000020940000209F
:1017F0007047704770470000F8B5016804460868F4
:10180000CA684B6910F00F0F4FF0000559D003F074
:10181000010602F49077374365D0C10705D0D105A2
:1018200003D5616C41F001016164410705D5D90719
:1018300003D0616C41F002016164810705D5D907CD
:1018400003D0616C41F004016164010707D502F027
:101850002001314303D0616C41F008016164616C87
:1018600000293AD0800604D5900602D5204600F023
:10187000C8FF20684069616CC0F38010090700D47C
:1018800060B3204600F088FF20684069400621D5FB
:101890002068143050E8001F21F0400140E8001299
:1018A000002AF5D1E06BA8B16D494163E06BFEF70A
:1018B00047FD002811D0E06B416B01B0BDE8F0405E
:1018C000084783060FD593060DD52046BDE8F8409E
:1018D00000F097BF2046FFF78DFFF8BD2046FFF7C9
:1018E00089FF6564F8BD266B2023012E7CD1C606D6
:1018F0007AD5D60678D508684868009048694FF0D0
:101900000206400640D5E16B086840680004000C00
:10191000E8D0A28D8242E5D9E085886920282DD0C3
:1019200020680C3050E8001F21F4807140E800125C
:10193000002AF5D12068143050E8001F21F0010181
:1019400040E80012002AF5D12068143050E8001F4A
:1019500021F0400140E80012002AF5D184F842301D
:10196000256320680C3050E8001F21F0100140E88A
:101970000012002AF5D1E06BFEF7BEFC6663A08D75
:10198000E18D401A81B22AE0A08DE18D401A81B22A
:10199000E08D0028A6D00029A4D020680C3050E8A3
:1019A000002F22F4907240E80027002FF5D1206824
:1019B000143050E8002F22F0010240E80027002FE9
:1019C000F5D184F84230256320680C3050E8002FB0
:1019D00022F0100240E80023002BF5D16663204678
:1019E000FFF707FFF8BDFFE705062BD5150629D53C
:1019F00094F841002128F5D1A068B0F5805F01D1AD
:101A00002069B0B1206A411C2162216800784860D9
:101A1000E08C401E0004000CE084E3D12068C16823
:101A200021F08001C1602068C16841F04001C160BF
:101A3000D8E7206A0088C0F308004860206A801C4C
:101A40002062E5E74006CDD55006CBD5CA682046D2
:101A500022F04002CA6084F8413000F0E3F8C1E7A8
:101A6000F326000870B5040004D094F84100002566
:101A700010B106E0012070BD84F84050204600F00F
:101A800023F8242084F841002068C16821F4005123
:101A9000C160204600F016FF2068016921F49041E2
:101AA00001612068416921F02A0141612068C16813
:101AB00041F40051C1606564202084F8410084F83D
:101AC00042006563002070BDF0B585B00025044676
:101AD000009501950295039500682D49884254D1DF
:101AE0002C48816941F480418161816901F4804120
:101AF0000491816941F0040181618069264E00F002
:101B0000040004904FF40070009002200190032024
:101B1000039069463046FEF783FD3015CDE9000598
:101B2000694630460295FEF77BFD1D4E1B48802717
:101B3000C6E90005C6E9025735617561B5613046F1
:101B4000F561FEF7F5FC08B1FEF7D4FBE6637462BD
:101B5000134E12484436143801C61020A1C610484E
:101B600046F8105944307561B561F561FEF7E0FC47
:101B700008B1FEF7BFFBA663002211462520746260
:101B8000FFF760F92520FFF74FF905B0F0BD000021
:101B90000038014000100240000801405800024097
:101BA000000200207047000037B5044690F841005D
:101BB000202801D002203EBD019951B34AB32162D1
:101BC000A284E28400206064212384F84130A56B64
:101BD000114BAB62A56B114BEB62A56B104B2B63EA
:101BE000A36B586320681346A56B021D2846FEF7B9
:101BF000CDFC21686FF0400008602068143050E888
:101C0000001F41F0800140E80012002AF5D10020B9
:101C10003EBD01203EBD00004D2700088F27000873
:101C20000327000800680349884202D102490120C5
:101C30000870704700380140180000207047FEE728
:101C400001684A69D24352050FD46FF480624A6139
:101C5000002140F8301F202242738173026942F054
:101C600004020261017301207047002070470000E8
:101C70002DE9F84F0446006889460B9E0168984696
:101C8000174641F4806101602068016841F4807169
:101C9000016000964FF0011B0022594620460A9B26
:101CA00000F0E3F84FF4007A40B120680068C00506
:101CB00001D5C4F840A00320BDE8F88F216809F0E1
:101CC000FE0008613346284920460A9A00F011F9BF
:101CD000F0BB2068416980690090324620460A992D
:101CE00000F09EF940B1206C04283AD120680168C8
:101CF00041F40071016034E0FDB2B8F1010F09D088
:101D00002168380A0861324620460A9900F088F9AD
:101D10000028E8D120680561324620460A9900F083
:101D20007FF90028DFD12068016841F480710160EB
:101D300000960022594620460A9B00F096F800289B
:101D4000B3D1216809F0FF0040F00100086100E014
:101D500007E03346044920460A9A00F0CAF80028F2
:101D6000AAD00120A8E70000020001002DE9F843F5
:101D7000044600680D46DDE9089701689846164656
:101D800041F4807101604B4600224FF00111204662
:101D9000009700F06AF848B120680068C00502D5D5
:101DA0004FF4007020640320BDE8F883216805F03B
:101DB000FE0008613B464A461549204600F099F866
:101DC00088B920684169806900903A4649462046B2
:101DD00000F026F948B1206C042804D1206801687D
:101DE00041F4007101600120DEE7F5B2B8F1010FA6
:101DF00009D02168300A08613A464946204600F079
:101E00000FF90028E7D1206805610020CCE7000029
:101E10000200010070B516460D4604461EE020463D
:101E2000FFF70EFF08B1012070BD681C16D0FEF749
:101E3000DDFC801BA84200D885B920684069C043FA
:101E400040070BD5002044F8300F20216173A073A8
:101E5000216941F0200121612073E4E72068406995
:101E6000C0434007DBD4002070BD2DE9F0471E467B
:101E700090460D460446C1F30747DDF8209026E062
:101E8000701C24D0FEF7B2FCA0EB0900B04200D8D1
:101E9000EEB92068012F16D0806925EA0000000401
:101EA000000C12D00020404511D1002044F8300F22
:101EB00020216173A073216941F020012161207309
:101EC0000120BDE8F0874069E7E70120EBE72068E3
:101ED000012F0AD0806925EA00000004000C06D01A
:101EE00000204045CCD00020EBE74069F3E701201B
:101EF000F7E72DE9F047984616460D4604464FF0A1
:101F000000094FF0200AC1F3074723E02068406929
:101F1000C043400515D42068016841F40071016098
:101F200021686FF480604861C4F8309084F83DA067
:101F300084F83E90216C41F00401216484F83C90C7
:101F400020E0701C06D0FEF751FCA0EB0800B04268
:101F500003D816B1012F1ED020E02068012F14D025
:101F6000806925EA00000004000C17D044F8309F77
:101F700084F80DA084F80E90216941F020012161C0
:101F800084F80C900120BDE8F087406925EA000044
:101F90000004000CEAD12068406901E020688069F3
:101FA00025EA00000004000CB0D1ECE72DE9F04177
:101FB00016460D46044600274FF0200829E04069E8
:101FC000C043C0060DD454F8301B6FF010004861B8
:101FD00044F80D7B04F81D89A777206A20622777D3
:101FE00014E0FEF703FC801BA84200D88DB92068DE
:101FF0004069C04340060CD544F8307F84F80D801A
:10200000A773206940F02000206127730120BDE8FC
:10201000F08120684169C9434906D0D40020F6E721
:1020200070B516460D4604461EE02046FFF708FE32
:1020300008B1012070BD681C16D0FEF7D7FB801BCD
:10204000A84200D885B920684069C04300060BD576
:10205000002044F8300F20216173A073216941F002
:10206000200121612073E4E720684069C043000635
:10207000DBD4002070BD000070B50E46044611464A
:10208000084600F093FF05463146084600F08EFFF3
:10209000294600F049FE00F031FE014684F0004080
:1020A00000F09EFCBDE87040014900F07FBF0000D9
:1020B000E12E654210B50846114600F091FCBDE8DE
:1020C0001040014900F072BFE12E654280E80E0029
:1020D0000021C160016141618161C16101624162B0
:1020E0008162C162016341638163C16370472DE90D
:1020F000FF4F83B09A4604007DD0A7691046394649
:1021000001F0B2F85146E06100F050FF216900F0A3
:102110000BFEE060019051460846676100F046FF03
:10212000D4F83C80414600F041FFD4E90D950646C5
:102130004946284600F0F8FD514600F037FF216B74
:1021400001F000F8314600F0EFFD216800F0ECFDF1
:10215000834620624146504600F028FF0646494625
:1021600000F0F0FF606200903046294600F0EAFF80
:10217000A06282464046616800F0D6FDE06281467A
:102180000199049801F070F802905846A16800F097
:10219000CBFD06460146584600F02EFE0546314668
:1021A000504600F029FE06462846029900F0FEFE41
:1021B000019900F0B9FD206180463046029900F097
:1021C000F5FE394600F0B0FDA0612846594600F002
:1021D000EDFE594600F0B6FF20632846009900F056
:1021E000E5FE009900F0AEFF60633046594600F00E
:1021F000DDFE514600E00EE000F0A4FFA063304693
:10220000009900F0D3FE494600F09CFFE063404691
:1022100007B0BDE8F08F0020FAE72DE9F04186B065
:102220008046012604A8CDE9000600254FF47A7403
:102230008DF8105033467522D02102944046FEF7A7
:102240009FFBF0BB9DF81000682841D103AF8DF8CB
:102250000C500097CDE9016401236B22D021404648
:10226000FEF7BCFC68BB0A20FEF7C8F98DF80C50DD
:102270000097CDE9016401236C22D0214046FEF78E
:10228000ADFCF0B98DF80C500097CDE90164012345
:102290001922D0214046FEF7A1FC90B98DF80C50D0
:1022A0000097CDE9016401231C22D0214046FEF7AE
:1022B00095FC30B901231B228DF80C50D0214046EB
:1022C00000E005E00097CDE90164FEF787FC18B156
:1022D000002006B0BDE8F0810120FAE72DE9F04FBB
:1022E00087B00C464FF47A730E2203A98DE80E00D6
:1022F00001233B22D021FEF743FB00285CD1BDF82F
:102300000C0040BA01B22180BDF80E0040BA00B204
:1023100060808146BDF8100040BA00B2A0808046BF
:10232000BDF8120040BA07B2A781BDF8140040BA48
:1023300006B2E680BDF8160040BA00B2208182469F
:10234000BDF8180040BA05B26581084600F016FED7
:102350006FF00D0B594601F02EF82061484600F051
:102360000DFE594601F027F86061404600F006FE78
:10237000594601F020F8A061384600F0FFFD1049F1
:1023800000F03AFD0F4900F0CFFCA062304600F0AB
:10239000F5FD0D4E314600F02FFDE061504600F096
:1023A000EDFD314600F028FD2062284600F0E6FDF4
:1023B000314600F021FD606207B0BDE8F08F0000FB
:1023C0000000AA43B81E1242000003430D4808B59E
:1023D000416941F0010141614069002200F00100C2
:1023E000009011460E20FEF72DFD0E20FEF71CFD7D
:1023F000002211460F20FEF725FDBDE808400F2002
:10240000FEF712BD001002400D4808B5816941F089
:1024100020018161816901F020010091816941F011
:1024200004018161816901F004010091816941F039
:1024300008018161806900F00800009008BD00007B
:10244000001002400D4810B50B4901600C49416075
:1024500000214FF480428160C0E903124161816133
:10246000C1610162FEF7C8F9002803D0BDE8104041
:10247000FDF740BF10BD000000540040D400002014
:10248000801A060010B586B0002417480094019405
:102490000294039404944FF0804105940160472115
:1024A000C0E9011440F2E731C0E9031480218161E1
:1024B000FEF7B2FF08B1FDF71DFF4FF4805000900A
:1024C00069460948FFF732F808B1FDF713FF049495
:1024D00004A905480594FEF76BFF002801D0FDF71D
:1024E00009FF06B010BD00002801002010B586B01D
:1024F000002417480094019402940394049413490F
:10250000059401604721C0E9011442F20F71C0E94E
:10251000031480218161FEF77FFF08B1FDF7EAFE19
:102520004FF48050009069460948FEF7FFFF08B15C
:10253000FDF7E0FE049404A905480594FEF738FF72
:10254000002801D0FDF7D6FE06B010BD0004004003
:10255000700100200C4810B50A4901604FF4E131C8
:102560004160002181600C22C160C0E904128161D8
:10257000C161FFF777FA002803D0BDE81040FDF7EE
:10258000B9BE10BD00380140B8010020FEE7FEE7EB
:10259000704770477047FEF7E7BB30B58FB0282112
:1025A0006846FDF711FE14210AA8FDF70DFE012073
:1025B000010400248DE8130004904FF4E010CDE9ED
:1025C0000810022507956846FEF750FD08B172B65F
:1025D000FEE70F20CDE90A054FF48060CDE90C40FD
:1025E00002210AA80E94FEF75FFC002801D072B603
:1025F000FEE70FB030BD70470148FFF706B8000096
:10260000280100200148FFF700B8000070010020F9
:10261000F0B50268194C1A4D1A4E4FF08047A0428F
:1026200005D0B84203D0A84201D0B04203D122F075
:1026300070034A681A43A04205D0B84203D0A842AA
:1026400001D0B04203D122F44073CA681A434B69E7
:1026500022F080021A4302608A68C2620A688262BB
:10266000A04201D109690163012141610169C907E2
:1026700003D0016921F001010161F0BD002C01408E
:10268000000400400008004010B5846842EA0322BC
:1026900024F47F440A432243826010BD826822F002
:1026A00070020A4342F007018160704710B5046A66
:1026B000036A23F001030362836923F0F00343EA12
:1026C000021324F00A020A438361026210BD10B5AE
:1026D000036A046A24F010040462846923F0A003EE
:1026E00024F4704444EA023243EA01118261016237
:1026F00010BD10B5406A0021C185C184FFF77AF88A
:1027000010BD70B5446A2068406994F84110C0F368
:10271000C0100025212904D118B1E584204600F01D
:1027200062F82068406994F84210C0F380102229B2
:1027300004D118B1E585204600F02EF8606C40F019
:10274000100060642046FFF755F870BD10B50146D3
:10275000406A09680968890616D40021C1840168A5
:10276000143151E8002F22F0800241E80023002BB1
:10277000F5D101680C3151E8002F42F0400241E8E8
:102780000023002BF5D110BDFFF74CFA10BD10B59A
:10279000406AFFF753FA10BD01680C3151E8002F71
:1027A00022F4907241E80023002BF5D10168143126
:1027B00051E8002F22F0010241E80023002BF5D15F
:1027C000016B012909D101680C3151E8002F22F079
:1027D000100241E80023002BF5D1202180F842109F
:1027E00000210163704701680C3151E8002F22F08D
:1027F000C00241E80023002BF5D1202180F84110D0
:10280000704708B590F84210222901D0022008BD77
:1028100081684FF48053994201D1026922B1826AE2
:1028200099421BD049B10AE00268816A5268C2F33A
:1028300008020A80816A891C08E0016971B1016897
:10284000496801F07F011170816A491C8162C18D64
:10285000491E0904090CC18503D01BE001684968C1
:10286000F1E70168CA6822F02002CA600168CA68FC
:1028700022F48072CA6001684A6922F001024A614A
:10288000202180F8421000214163026B012A03D00D
:10289000FFF788F9002008BD016301680C3151E899
:1028A000002F22F0100241E80023002BF5D101682F
:1028B0000A68D20602D50A6849680091818DFEF740
:1028C00098FFE7E770B5044600680169E26821F403
:1028D000405111430161A1682069014360690143CE
:1028E0002068C26841F20C639A430A43C2602068C0
:1028F0004169A26921F44071114341611E49206878
:10290000884202D1FEF77CFB01E0FEF769FB00EB99
:10291000C00101EB0011606864228000B1FBF0F39C
:10292000B3FBF2F36FF018067343B1FBF0F5B1FBA4
:10293000F0F605EB8305322303EB0515B5FBF2F545
:10294000B6FBF2F605F0F00505EB0615B1FBF0F667
:10295000B1FBF0F0B0FBF2F06FF01801484306EB6A
:10296000800003EB0010B0FBF2F0216800F00F00D4
:102970002844886070BD0000003801400148FEF71F
:102980003BBF0000B8010020FEE74100080218BF6D
:1029900004200A0E18BF40F001004FF07F4232EAD7
:1029A000010108BF40F00200012808BF0520704760
:1029B0000907090E002804DB00F1E02080F800146C
:1029C000704700F00F0000F1E02080F8141D704700
:1029D00000F0AAB96FF05E01080700F0ECBC00003F
:1029E0002DE9F0474FF0684202EB40030C460546E4
:1029F000B3F1654F3CBF02EB4102B2F1654F80F08D
:102A0000CD8000BFC0F3C752C1F3C753D21A1B2AEF
:102A100006DD10F0004F14BF87488848BDE8F087F6
:102A200012F11A0F2FDA11F0004F06D010F0004FFC
:102A30000CBF83488348BDE8F0872146284600F054
:102A4000DBF90646FFF7A1FF042808BFFFF7C2FF26
:102A50002846FFF79AFF05462046FFF796FF0446F3
:102A60003046FFF792FF042D18BF052D08D1042C26
:102A700018BF052C04D1002804BF0220FDF7D3FBAA
:102A80003046BDE8F0874200B2EB410F25D910F087
:102A9000004F19BF6C4F6D4E6D4F6E4E224685F044
:102AA000004415460A4680F0004110460A1A5200BA
:102AB000B2F1807F3ED248406749DFF8A0A110F014
:102AC000004F18D04FF03F48384600F0CDFB074686
:102AD0005146304600F0C8FB17E011F0004F04BF2C
:102AE00000263746E2D010F0004F19BF5C4F5D4E14
:102AF0005D4F5E4EDAE74FF07C58384600F014F92F
:102B000007465146304600F00FF906464146284632
:102B100000F04CFA214600F007F982462146404673
:102B200000F044FA294600F00DFB514600F064F92C
:102B3000044604E02146284600F05EF904460146BA
:102B400000F034FA80464A4900F030FA494900F072
:102B5000EBF8414600F02AFA474900F0E5F8414613
:102B600000F024FA454900F0DFF8414600F01EFA73
:102B7000434900F0D9F805464146204600F016FAD0
:102B8000294600F013FA314600F0CEF8214600F055
:102B9000CBF83946BDE8F04700F0C6B84FF07F42A9
:102BA000B2EB400F28BFB2EB410F03D2BDE8F047B4
:102BB000FFF70EBF40EA01035B0008BF44F0FF418E
:102BC0000AD0B2EB400F08BFB2EB410F06D125F09F
:102BD000804024F0804105460C4613E7B2EB400FDD
:102BE00012BF5FEA410345F0FF4004F000413FF4AB
:102BF00009AFB2EB410F12BF5FEA400205F000409F
:102C000044F0FF413FF4FEAE4A0092EA40033FF534
:102C1000F9AE002AACBF4FF09F464FF03E5631460A
:102C200000F0C4F905463146204600F0BFF90446DD
:102C300028462146E6E60000DB0FC9BFDB0FC93F8F
:102C4000DB0F4940DB0F49C00000C9BF22AAFDB914
:102C50000000C93F22AAFD390060ED3EC30ACE370D
:102C6000000049C022AA7DBA0000494022AA7D3A4C
:102C70002DAD65BD8FB8D53D0FB511BE61C84C3EB9
:102C8000A8AAAABEFEF778F8FFF787FCFFF7BCFBFF
:102C9000FFF79CFBFFF7D6FBFFF75CFCFFF7F2FBAF
:102CA000FFF724FC0F48FEF715FC0F48FEF712FC57
:102CB0000E48FFF7B2FA90B10D4D0E4E4FF07C5416
:102CC00023462A4631460C48FFF700FA0A482346B5
:102CD0002A4631464030FFF7F9F930BFFDE772B6BA
:102CE000FEE700002801002070010020D400002031
:102CF0006F12833AACC5A7385400002070B5054662
:102D000000F02AFA044620F00040C0F1FF40C00F56
:102D100008D025F00040C0F1FF40C00F04BF0120E3
:102D2000FDF781FA204670BD90EA010F48BF81F09F
:102D3000004100F1A082421A3CBF801A89184FEA74
:102D4000D0524FF07F4C1CEA410FA2EBD15318BF79
:102D50009CEA026F00F03B804FF0004C4CEA0020F0
:102D60004CEA012121FA03FC10EB0C0C1ED202F1FB
:102D7000FF325FEA1C2040EBC25038BF70471CF0A6
:102D80007F0F4FEA400C18BFBCF17F4F38BF704730
:102D9000C3F12003994008BF20F00100BCF17F4F30
:102DA00038BF7047A0F1C04000F0C7B94FEA3C00FF
:102DB000000A40EBC25028BF1CF0FF0F4FEA400C46
:102DC000E6D018BFBCF17F4F38BF7047EAE79CEAF6
:102DD000026F05D010EA5C0F08BF00F0004070479A
:102DE00010B500F064F900BF64FBBE3E014800F07E
:102DF000B0BA00BF0000C07F4FF47F0C1CEAD012B5
:102E00001EBF1CEAD11392EA0C0F93EA0C0F00F0DC
:102E1000858090EA010F48BF42F4807240F4000CB4
:102E200041F400002CF07F4120F07F4000B581424A
:102E3000A2EB03020FF2081CACEB504EC0F10000F5
:102E40009EF800E04FEA4E0E00FB0EFC38BF490032
:102E50004FEA2C1C02F5FA020CFB0EF34FEACE1ED1
:102E60004FEA112C4FEAC1210EEB635E42EB224286
:102E70000EFB0CFC4FEA1C5300FB03114FEA112C14
:102E80004FEA01310EFB0CFC4FEADC4C00FB0C114D
:102E9000C14228BF09184CEB03335DF804EB10EB7B
:102EA000410143EBC250B2F57C0F38BF704729D5C2
:102EB00012F0F00F1CBF00F1C04000F0004070475E
:102EC000008182838485868788898B8C8D8E8F9103
:102ED0009293959697999A9C9D9FA0A2A3A5A7A827
:102EE000AAACAEB0B2B3B5B7B9BCBEC0C2C5C7C953
:102EF000CCCED1D4D7D9DCDFE2E6E9ECF0F3F7FAB7
:102F0000FE0000004FEA400C0CF1807CBCF17E4FCB
:102F100028BF7047B0F1C04000F00FB990EA010F30
:102F20000CEAD11348BF42F48072624538BF634552
:102F300007D213F47F0F16D080EA010000F00040A2
:102F4000704710B500F0B3F8097EFC3E00F005B8FC
:102F500080EA010000F00040704780EA010000F0C4
:102F6000004000F0EAB812F47F0F04BF0248704737
:102F700080EA010000F0E1B80000C07F10F00041DD
:102F800048BF4042B0FA80F310FA03F2C3F19D0348
:102F90000BD051EAC35101EB1220530638BF7047E2
:102FA00000F1010008BF20F0010070474FF47F0CD2
:102FB0001CEAD0121EBF1CEAD11392EA0C0F93EA4E
:102FC0000C0F00F0478090EA010F48BF42F4807276
:102FD0004FF0004C4CEA00204CEA012102EB0302C6
:102FE000A0FB0113A2F50002002918BF43F0010362
:102FF0005B0028BF4FEA330342EB22425FEA132C07
:103000004CEBC2502EBFBCEB436FB2F57C0F704748
:103010004FEA036CBCF1004F08BF20F00100B2F58D
:103020007C0F38BF70470BD582F0FF0212F5803F4E
:10303000C8BF704700F1C040D8BF00F000407047E3
:1030400000F5000C5FEA4C0C48BF7047B0F1C0407F
:1030500000F073B890EA010F0CEAD11348BF42F4B4
:103060008072624538BF634504D280EA010000F0F7
:103070000040704710B500F01AF800BF8900013E0B
:1030800000F007B800F009B85FEA410C5FEA1C6C79
:1030900008D080EA010000F050B85FEA400C5FEA17
:1030A0001C6CF6D14FF00040A0F5800070470EF187
:1030B000020E2EF0030E5EF8044B244204D44FEAB5
:1030C0004102B2F17F4F11D84FEA4003B3F17F4F75
:1030D0000CD80ED14FEAD07CB2F17F4F0CEB4C0CE8
:1030E0000CF1020C08BF4CEBD17C04E04FF0080C53
:1030F00001E04FEAD17C0CEB4C0324FA03F404F01A
:103100000704B4F1040C06D20EEB840CBDE81040A9
:103110004CF0010C6047DFE80CF0070802024FF0AA
:103120000040A0F5800010BD0846420018BFD2F153
:10313000807288BF00F0004010BDFF2141EAD050EE
:10314000C005704780F0004090EA010F7FF5F3ADB5
:1031500081F0004100F08FB84FEAD051002988BFBC
:10316000D1F1FF0240F2758001F17D014FEA0020AC
:1031700070B5490840F0004038BF40080EA2430E29
:10318000040CD25C02FB02F304FB03F3C3F14043E3
:10319000A3FB0254ED0D45EA442202FB02F3A0FB1F
:1031A00003546D42C4F1404438BF641EA2FB053590
:1031B0000023E2FB0453EA0B42EA4342A0FB023243
:1031C00012F14004A2F12103E40903F07F031F2B55
:1031D00032D904EBC15070BDFEFAF7F3F0ECE9E62A
:1031E000E4E1DEDCD9D7D4D2D0CECCCAC8C6C4C2C2
:1031F000C1BFBDBCBAB9B7B6B4B3B2B0AFAEACAB79
:10320000AAA9A8A7A6A4A3A2A1A09F9E9E9D9C9B9D
:103210009A999897979695949393929190908F8E70
:103220008E8D8C8C8B8A8A8989888787868685840F
:10323000848383828281818004FB04F6B6EB00469E
:1032400003D5E64248BF641CC3E7A64258BF641CCE
:10325000BFE711F0FF0F02D100F00040704710B53A
:10326000FFF725FF7FDBFFBE90EA010F48BF81F02B
:1032700000413FF560AD421A04D882F00042A0EB55
:10328000020011444FEAD0524FF07F4C1CEA410F2C
:10329000A2EBD15318BF9CEA026F4AD04FF0004C0A
:1032A0004CEA00204CEA012121FA03FCB0EB0C0CA3
:1032B0000FD412F0FE0F36D05FEA4C001DD500127D
:1032C00040EBC25038BF70471CF03F0F18BF70472B
:1032D0000BE0A2F101025FEA1C2040EBC25038BFB4
:1032E00070471CF07F0F18BF7047C3F1200399404F
:1032F00014BF401E20F00100704780084FEA1223DF
:1033000008BF7047B0FA80FCA2EB0C02CCF1280C8D
:1033100060FA0CF093EA122F04BF00EBC250704722
:103320004FEAC3707047130A5FEADC1008BF7047AA
:10333000F6E79CEA026F04D010EA5C0F08BF002099
:10334000704710B5FFF7B3FE40DFF63E81F0004056
:1033500070470CF00F03092B08BF082000F05180C4
:103360000A2B0BD0082B18BF704708BF1CF0400F6A
:103370000AD04FF000004FF0000170471CF0400FE2
:1033800018BF4FF0004070471CF0100F08D020F01D
:10339000704300F07F4242EAD3014FEA4370704726
:1033A00000F0604021F07F4242EA000201F07F40DD
:1033B00040EA727070474FF0FF0212EAD0521CBF11
:1033C00092F0FF038B42C2BFD14200EBC150704765
:1033D000002A0AD0002B0BD0002900F00040A4BF27
:1033E00040F0FE4040F40000704700F0004070479D
:1033F00043024FF00B0C18BF4CF0806C7FF4F6AC1E
:1034000070471CF4801F11D01CF4E02F03D06FEA2A
:10341000CC31490070474FF04050EFF3008222F06A
:10342000704242EA000282F3008870474FF00000C9
:1034300070470000000000000000010203040607BE
:103440000809000000000102030401020203040550
:10345000060708090A0B0C0D0E0F10107C3400082B
:10346000000000202800000028010008A434000803
:1034700028000020C00800004401000800127A0063
:10348000010000001000000000000000000000002B
:10349000000000000100000000000000000000002B
:0434A0000000807F29
:04000005080000ED02
:00000001FF
